:100000000C94E1020C9419030C9419030C94190339
:100010000C9419030C9419030C9419030C941903F0
:100020000C9419030C9419030C94C1220C947D2296
:100030000C94BE230C9419030C9419030C9419030B
:100040000C9419030C9419030C9419030C941903C0
:100050000C9419030C949A230C9419030C9419030F
:100060000C9419030C9419030C9419030C941903A0
:100070000C9419030C9419030C9419030C94190390
:100080000C9419030C9419030C9419030C94190380
:100090000C9419030C9419030C9419030C94190370
:1000A0000C9419030C9419030C94190329001E00D5
:1000B0001F0020002100220023002400250026002C
:1000C00027002E0035004C004B002B0014001A00B6
:1000D0000800150017002F001C0018000C0012006B
:1000E00013002A002A004E000153040016000700E6
:1000F00009000A0038000B000D000E000F0034004C
:1001000028002800E500E1001D001B000600190082
:100110000500330011001000360037002D00E50007
:100120004A004D00E000E300E200E00001512C0035
:100130002C002C00E600E7000251E40001530451BA
:10014000460001003A003B003C003D003E003F00FD
:10015000400041004200430044004500010001000E
:100160000100010052000100010001003000010007
:100170000100010001000100010001000100045321
:10018000500051004F0001000100310050005200AA
:1001900051004F00010001000100010001000100B9
:1001A0000100010001000100330001000100010015
:1001B00001000100010001004900010001000100EF
:1001C00001000100005C01000100010001000100CC
:1001D0000100010001000100010001000100010017
:1001E0000100010001000100010001000100010007
:1001F0000100010001000100C35CC45C01000100BA
:1002000001000100010001000100010001000100E6
:10021000010001000100C75CC95CCB5CCD5C010042
:1002200001000100010001000100010001000100C6
:1002300001000100C65CC85CCA5CCC5C0100010026
:1002400001000100010001000100010001000100A6
:100250000100010001000100010001000100010096
:100260000100010001000100010001000100010086
:100270000100010001000100010001000100010076
:100280000100010001000100010001000100010066
:100290000100010001000100010001000100010056
:1002A0000100010001000100010001000100010046
:1002B0000100010001000100010001000100010036
:1002C0000100010001000100010001000100010026
:1002D0000100010001000100010001000100010016
:1002E0000100010001000100010001000100010006
:1002F00001000100010001000100010001000100F6
:1003000001000100000000000000000000000000EB
:1003100000000000000000000000000000000000DD
:1003200000000000000000000000000000000000CD
:1003300000000000000000000000000000000000BD
:1003400001000000000000000000000000000000AC
:10035000000000000000000000000000000000009D
:10036000000000000000000000000000000000008D
:10037000000000000000000000000000000000007D
:10038000000000000000000000000000000000006D
:100390000000000000000000000000010101010158
:1003A000010101010202020202020202020303032E
:1003B00003030303030404040404040405050505FE
:1003C00005060606060607070707070808080809BE
:1003D0000909090A0A0A0B0B0B0C0C0C0D0D0D0E6A
:1003E0000E0E0F0F0F1010111111121213131414FF
:1003F000151516161717181819191A1A1B1B1C1D74
:100400001D1E1E1F202021222223242425262627CC
:100410002829292A2B2C2D2D2E2F303132323334FE
:1004200035363738393A3B3C3D3E3F404142434404
:1004300045464748494A4C4D4E4F505153545556E6
:1004400058595A5B5D5E5F616264656668696B6C92
:100450006D6F7072737577787A7B7D7E808283850D
:1004600087888A8C8E8F91939596989A9C9EA0A24D
:10047000A3A5A7A9ABADAFB1B3B5B7BABCBEC0C257
:10048000C4C6C9CBCDCFD1D4D6D8DBDDDFE2E4E71B
:10049000E9EBEEF0F3F5F8FAFDFF05010902A10121
:1004A00085020901A1000509190129081500250186
:1004B0009508750181020501093009311581257FF3
:1004C00095027508810609381581257F9501750803
:1004D0008106050C0A38021581257F950175088172
:1004E00006C0C005010980A101850319012AB700D2
:1004F000150126B700950175108100C0050C090192
:10050000A101850419012AA002150126A002950166
:1005100075108100C005010906A101050719E02930
:10052000E71500250195087501810295017508817F
:10053000010507190029FF150026FF00950675081B
:10054000810005081901290595057501910295019C
:1005500075039101C009023B00020100A0FA0904E1
:1005600000000103010100092111010001224000E6
:1005700007058103080001090401000103000000D0
:10058000092111010001227B0007058203200001DF
:1005900012010002000000086469750002000102F7
:1005A00000010A03490044003700350000000E0333
:1005B000490044004F00420041004F000000040386
:1005C000090411241FBECFEFDAE0DEBFCDBF04B6B1
:1005D00003FE18C08091450590914605A0914705FE
:1005E000B09148058730904BA740B04B59F410921A
:1005F0004505109246051092470510924805E0E027
:10060000F8E3099525E0A2EBB2E001C01D92A53404
:10061000B207E1F712E0A0E0B1E0E4E3F3E502C0E5
:1006200005900D92A23BB107D9F70E94E5230C94E7
:1006300061290C94000090913F05937061F0811145
:100640000BC0946090933F051092160180913E0577
:10065000816080933E050895813210F09068F2CF5A
:10066000880F880F982BEECF90913F05937059F02B
:1006700080934005609341054093420580913E057B
:10068000816080933E050895E8EDF0E080818E7FE3
:1006900080831092E2001092DA001092E100A0EE46
:1006A000B0E08C9181608C9380818F77808319BCBE
:1006B000A7EDB0E08C918E7F8C9380818F7E8083BC
:1006C0001092F70408952091E4003091E50095E63A
:1006D000A9012091EC00822F817020FF06C080913B
:1006E000E80080FF06C080E008952091E80022FD28
:1006F0001AC080910405882389F0853089F08091A3
:10070000EB0085FD0FC02091E4003091E500421719
:100710005307F9F29150E1F684E0089582E00895DC
:1007200083E0089581E00895EF92FF920F931F9365
:10073000CF937C018B010E946303C82F811117C0E6
:100740008091E80085FD0BC08091E8008E77809352
:10075000E8000E946303882399F3C82F08C0F701BB
:1007600081917F018093F1000150110949F78C2F8D
:10077000CF911F910F91FF90EF9008958091060502
:1007800087FF13C08091E80082FF06C08091E800D7
:100790008B778093E80004C0809104058111F2CF2B
:1007A0000895809104058823D9F38091E80080FFA3
:1007B000F8CF8091E8008E77ECCF982F9093E900E6
:1007C000242F762F50E0891731F07091EC002091A2
:1007D000ED005091F00021FD07C09F5F973071F749
:1007E0008093E90081E008953091EB003E7F3093E3
:1007F000EB003091ED003D7F3093ED003091EB0048
:1008000031603093EB007093EC002093ED00509337
:10081000F0002091EE0027FDE0CF80E00895B0E0E9
:10082000A0E0E5E1F4E00C940D28C8EDD0E088816B
:100830008F7E8883E7EDF0E080818160808384E0B3
:1008400082BF81E08093F70488818E7F888302EEE7
:1008500010E0F80110821092DA0081EEC82ED12C3F
:10086000F601108288818F778883888180688883E9
:1008700088818F7D888319BC10920405109205052C
:10088000109203051092020590EEE92EF12CF7016B
:1008900080818B7F808388818160888342E060E0F3
:1008A00080E00E94DD03F60180818E7F8083F80165
:1008B000808181608083808188608083F70180816E
:1008C0008E7F8083888180618883CDB7DEB7E8E042
:1008D0000C942928FC0180910C0590910D05861738
:1008E0009707A0F06115710529F49091E8009E77B3
:1008F0009093E80090E06115710551F4911108C0E2
:100900008091E80082FF34C080E00895BC01F2CFFE
:10091000809104058823C1F18530C1F18091E80000
:1009200083FD30C08091E80082FDEACF8091E8002D
:1009300080FFE1CF8091F3002091F200382F611504
:10094000710519F02830310558F091E02830310553
:1009500009F090E02091E8002E772093E800CBCFBB
:1009600081918093F100615071092F5F3F4FE7CF74
:1009700080910405882341F0853041F08091E800A2
:1009800083FFBECF81E0089582E0089583E008955B
:1009900008958091F90408959C014FB7F8948091CF
:1009A000F0049091F104A091F204B091F3044FBFD0
:1009B000821B930B08952FB7F8948091F0049091C7
:1009C000F104A091F204B091F3042FBF0895209197
:1009D000ED043091EE042817390771F09093EE047E
:1009E0008093ED04E091EB04F091EC04309721F05A
:1009F0000084F185E02D099508952091E904309156
:100A0000EA042817390771F09093EA048093E90407
:100A1000E091EB04F091EC04309721F00680F7812F
:100A2000E02D09950895E091EB04F091EC043097E6
:100A300029F00190F081E02D0995089580E0089556
:100A4000FA01811101C0FB0109950895EAEEF3E076
:100A5000818360834283339694E0E93EF907C1F7CE
:100A60000895FC01EE0FFF1FE80FF91FE651FC4F40
:100A70006183408322830895EFE3F5E0248130E130
:100A8000231B08F420E0248380913E05816080933D
:100A90003E050895EFE3F5E0248130E1230F08F4EB
:100AA0002FEF248380913E05816080933E05089559
:100AB000EFE3F5E0438120E1421B08F440E081814F
:100AC000628190E00E9434030895EFE3F5E04381F2
:100AD00020E1420F08F44FEF8181628190E00E9493
:100AE00034030895EFE3F5E0628120E1621B08F42E
:100AF00060E08181438190E00E9434030895EFE338
:100B0000F5E0628120E1620F08F46FEF818143819B
:100B100090E00E9434030895EFE3F5E08181438182
:100B200062818850990B0E9434030895EFE3F5E049
:100B3000818190E04381628108960E943403089588
:100B400080913F0586958695815009F480E20E9448
:100B50001B03089580913F05869586958F5F8132AE
:100B600008F081E00E941B030895EF92FF920F931B
:100B70009701201B31092F3F310519F010F02FEF9D
:100B800030E02095382F320F08F43FEF832F0F917C
:100B9000FF90EF900895EF92FF920F939701201B23
:100BA00031092F3F310519F010F02FEF30E0322FCF
:100BB0003095482F430F08F44FEF842F620F0F91A9
:100BC000FF90EF900895EF92FF920F93972F0934C3
:100BD00038F4B701601B71096F3F710519F010F00F
:100BE0006FEF70E0485F5F4F4131510540F0A90160
:100BF000485F5F4F4131510510F06FEF70E0609535
:100C0000482F460F08F44FEF842F37FF02C02D5FA7
:100C10003F4F359527953595279560914005620F93
:100C2000792F0F91FF90EF900895EF92FF920F931D
:100C30001F930E0D1F2D111DF90137FF03C0F195F4
:100C4000E195F10924E0EE0FFF1F2A95E1F7EF3F50
:100C5000F10519F014F0EFEFF0E09A0157FF03C02F
:100C600031952195310994E0220F331F9A95E1F7D0
:100C70002E173F070CF4F901E00FF11FEF3FF105CC
:100C800019F010F0EFEFF0E0E095282F3E2F230F42
:100C900008F42FEF822F1F910F91FF90EF9008958E
:100CA000EF92FF920F93970195E0099F200D311D60
:100CB00011242F3F310519F010F02FEF30E020956F
:100CC000382F320F08F43FEF832F0F91FF90EF90F2
:100CD000089522E8241B08F420E0620F089540954F
:100CE000282F429F412D1124842F0895EF920F93B6
:100CF000972F23E0029FB0011124759567956E0D23
:100D0000792F0F91EF900895322F50E0FA01EE0FF6
:100D1000FF1FED54FE4F9081905297FD9195440F27
:100D2000551FFA01EE54FE4F2081231B330B290F70
:100D3000311D97FD3A95620F0895E42FF0E0EE0F14
:100D4000FF1FED54FE4F6081621B0895E42FF0E019
:100D5000EE0FFF1FEE54FE4F6081621B0895622F5D
:100D60000895E42FF0E0EE0FFF1FEE54FE4F408198
:100D700034EE439F412D1124E82FF0E050E0445E13
:100D80005F4FDA01A21BB1099D01B7FF03C0319586
:100D90002195310993E0220F331F9A95E1F7AF01B6
:100DA000421B530B9A0157FD20E0582F259F212D00
:100DB0001124822F0895E42FF0E0EE0FFF1FEE5470
:100DC000FE4F408134EE439F412D1124E72FF0E088
:100DD00050E0445E5F4FDA01A21BB1099D01B7FFED
:100DE00003C031952195310993E0220F331F9A9565
:100DF000E1F7AF01421B530B9A0157FD20E0279FFB
:100E0000212D1124722F08950E94260508950E9415
:100E100031050895FC019B01009729F480E077FFDC
:100E20002BC080E80895AC0197FF04C044275527E4
:100E3000481B590BB901640F751F37FD10C0241BE7
:100E4000350BC901A5E0880F991FAA95E1F70E940B
:100E5000E92780E2861BF7FF0FC081950895CB013B
:100E600065E0880F991F6A95E1F7BA01621B730B61
:100E70000E94E92780E6EECF08950F93CF93DF938A
:100E8000D72FC82FC901BA010E940A07682F600F27
:100E90007D2F8C2FDF91CF910F910895EF920F93BB
:100EA0001F93CF93DF93D62FC72F182FC9010E1989
:100EB000010FBA010E940A07081B202F219F212D34
:100EC0001124822F6D2F7C2FDF91CF911F910F91D5
:100ED000EF900895EF920F931F93CF93DF93D62F48
:100EE000172FC82FC9010E19070FBA010E940A0750
:100EF000702F781B719F712D11246D2F8C2FDF9116
:100F0000CF911F910F91EF9008950F931F93CF935F
:100F1000DF93D62FC72F182FC901212F201B022F97
:100F2000BA010E940A07982F990F990F891B800F09
:100F3000282F219F212D1124822F6D2F7C2FDF91AF
:100F4000CF911F910F9108950F931F93CF93DF932C
:100F5000D62F172FC82FC901272F201B022FBA0108
:100F60000E940A07982F990F990F782F791B700FFD
:100F7000719F712D11246D2F8C2FDF91CF911F91B7
:100F80000F910895AC018230910508F408959FEF08
:100F9000413E8EE1580740F49A0195E03695279539
:100FA0009A95E1F798E0920F61E0E62FE90FFF27AD
:100FB000FF1F9F0135952795822F229FF001239FC8
:100FC000F00DF00D11244E175F0738F49FEF920FCC
:100FD000961758F78FEF860F08952F3FE9F361E0DA
:100FE000620FF6CF0F93CF93DF93D72FC82F47FD14
:100FF000419588E390E0841B910947FD9395889F74
:10100000B001899F700D700D1124229FC001239F94
:10101000900D900D1124860F971F0E94C207982FE4
:10102000990F890F682F600F7D2F8C2FDF91CF9143
:101030000F91089530E020E0869F212D969F200D8E
:10104000311D1124C9010895AF92BF92CF92DF9252
:10105000FF920F931F93CF93DF93362F472FE82FE5
:10106000F0E0E656FC4F71110FC0E4918E2F2E2F49
:101070006E2F722FDF91CF911F910F91FF90DF9014
:10108000CF90BF90AF900895C72FD0E02491F22E5B
:10109000022F10E056E0659FC0011124EFEFF0E051
:1010A000BF010E94D527832F90E0880F991F35E557
:1010B000369FD001379FB00D11248A1B9B0B982FB0
:1010C000990F980F6F01CC1ADD0AC09ED001C19E06
:1010D000B00DD09EB00D11248B2F499FA00111247B
:1010E000452F55276F01C41AD50AC09EA001C19E85
:1010F000500DD09E500D11245F01A91AB108AC9E6D
:101100006001AD9ED00CBC9ED00C1124CD2CDD24F2
:10111000EC19FD09E09FE001E19FD00DF09FD00D9B
:101120001124ED2F62307105A1F050F461157105A5
:1011300009F49ECF6130710581F0EB2F852F98CF98
:101140006430710569F080F06630710509F490CF64
:10115000F4CFE22F2B2F8D2F8BCFE22F252F88CF8F
:10116000EB2F822F2D2F84CF2B2F8F2DE52F80CF8C
:101170002F923F925F926F927F928F929F92AF9247
:10118000BF92CF92DF92EF92FF920F931F93CF9374
:10119000DF93CDB7DEB72A970FB6F894DEBF0FBE48
:1011A000CDBF8B837E836D832091130181E1289FC6
:1011B000802D11248F838F5E89838A83863510F07A
:1011C00035E53A83809112058C83FF81EF2FF0E0A3
:1011D000FA87E987CF01880F991F9C012E543E4F53
:1011E00069013B81832F90E0FC013196F887EF8302
:1011F0008A8199859817E8F081E0E981E53508F062
:1012000080E02A960FB6F894DEBF0FBECDBFDF9107
:10121000CF911F910F91FF90EF90DF90CF90BF90F3
:10122000AF909F908F907F906F905F903F902F90A6
:101230000895E985FA85E45AFD4F80819091140163
:101240008923F1F020904005309041052F813885A9
:101250002E5E3A4F39015B8010E0FC815F16D0F0C2
:1012600020914205129F112D1124B101812F0E945E
:101270002408462F282F672F89859A850E94070703
:1012800029853A852F5F3F4F3A87298732E0C30E81
:10129000D11CAECFF30181913F01F601A080A81AC5
:1012A000BB088180F3018781881A9908AA9C900164
:1012B000AB9C300D300D1124889CC001899C900D91
:1012C000900D1124820F931F0E94C207082F609176
:1012D000430521E0620F08F46FEFF301EE0FFF1FEB
:1012E000E251F540858996890E941A087C01940193
:1012F000A501B101812FED81FE8109951B01539458
:10130000182FABCFB0E0A0E0E8E8F9E00C940D288E
:101310008C01C091130181E1C89FC02D112421E1EE
:10132000D22EDC0ECD2C25E52D1510F495E5C92E19
:101330002091430531E0230F08F42FEF30E050E017
:1013400040E06FEF7FEF80E090E00E94FE2879019F
:10135000D0E02C2FCC1550F081E0F4E5FD1508F419
:1013600080E0CDB7DEB7E8E00C942928FE01E45A0E
:10137000FD4F808190911401892311F14091120554
:101380004150042E000C550B47FF1CC0C701609153
:10139000430521E0620F08F46FEF0E941A08AC01C8
:1013A000609140057091410580914205F8010995D1
:1013B0000E942408462F282F672FCE010E9407077E
:1013C0002196C7CFFA01EE5EFA4F818982130AC0D7
:1013D000FA01EE0FFF1FEE5EFA4F818D928D8E1592
:1013E0009F05A8F241505109CFCFB0E0A0E0EBEF4C
:1013F000F9E00C940D287C01C091130181E1C89F94
:10140000C02D112411E11C0FD12E163510F035E539
:10141000D32E60914305669580910E0590910F053E
:101420000E941A08C82ED0E0CD1548F081E015358D
:1014300008F080E0CDB7DEB7E8E00C942928FE0183
:10144000E45AFD4F808190911401892311F1CE015E
:10145000880F991F89599E4FFC01E45BFF4F208143
:101460002052330B855B9F4FFC0140814057550B49
:101470006091400570914105809142050C2DF70166
:1014800009950E942408462F282F672FCE010E941D
:1014900007072196C9CFB0E0A0E0E1E5FAE00C949F
:1014A00008285C01C091130181E1C89FC02D11245F
:1014B00011E11C0FF12E163510F035E5F32E609179
:1014C0004305669580910E0590910F050E941A08BC
:1014D000782ED0E0CF1548F081E0153508F080E097
:1014E000CDB7DEB7EDE00C942428FE01E45AFD4FA1
:1014F0008081909114018923C9F1CE01880F991F31
:1015000089599E4FFC01E55BFF4F2081422F4057D8
:10151000550B6A01845B9F4FFC018081282F20526C
:10152000330B4901449F9001459F300D300D11242C
:10153000889CC001899C900D900D1124820F931FEF
:101540000E94C207082F609140057091410580916B
:101550004205E72C9401A601F50109950E94240893
:10156000462F282F672FCE010E9407072196B2CF62
:10157000B0E0A0E0EEEBFAE00C940E287C01C09104
:10158000130181E1C89FC02D112411E11C0F012F0F
:10159000163508F005E5609143056695669521E0EE
:1015A000620F08F46FEF80910E0590910F050E9475
:1015B0001A08D82ED0E0C01748F081E0153508F0A1
:1015C00080E0CDB7DEB7E7E00C942A28FE01E45AAC
:1015D000FD4F808190911401892391F06091400525
:1015E00070914105809142052D2D4C2FF7010995F1
:1015F0000E942408462F282F672FCE010E9407073C
:101600002196D9CF0E94DB049C01909169038091BF
:101610006A03982B21F03093660320936503909121
:101620006B0380916C03982B21F03093640320931B
:101630006303E091EB04F091EC04309749F082E011
:10164000809367030480F581E02D87E693E0099598
:101650000895409169038D3E59F480916A0387FF94
:101660000DC010926A0341110BC01092610308C0B3
:101670008E3E81F480916A0318169CF3442381F016
:1016800080916B0390916C03892B09F05AC01092E2
:10169000600308958F3E49F447FFF0CF109269032D
:1016A00080916A038111ECCFE0CF803F19F41416CA
:1016B000ACF3E4CF90916B03893F29F41916F4F64B
:1016C00010926B03DBCF8A3F19F497FFD7CFF8CF87
:1016D00090916C038B3F29F497FFD0CF10926C034D
:1016E000CDCF8C3F19F41916CCF3C8CF9FE0980FDB
:1016F000983090F4815F990B21E030E0B90102C08D
:10170000660F771F8A95E2F7CB0180959091680369
:10171000892380936803B2CF8D3F31F480916203B7
:101720008E7F80936203AACF8E3F21F48091620363
:101730008D7FF7CF8F3F09F0A1CF809162038B7F20
:10174000F0CF08958091620380FD16C081FD16C020
:1017500082FD16C0809160038823A1F0883280F456
:1017600028E0829FC001112468E270E00E94E9270E
:10177000862F672B39F0089582E0089584E008955C
:1017800088E0089581E008958091620380FD14C08F
:1017900081FD14C082FD16C080916103882381F011
:1017A0008E3180F420E5829FC00111246EE170E04B
:1017B0000E94E927862F089584E1089588E208951C
:1017C00088E0089580E508958D3E31F40E94C40BB1
:1017D000819580936A0308958E3E19F40E94C40B8C
:1017E000F8CF8F3E31F40E94C40B8195809369033A
:1017F0000895803F19F40E94C40BF8CF893F29F463
:101800000E94A20B80936B0308958A3F21F40E94EB
:10181000A20B8195F7CF8B3F31F40E94A20B8195EB
:1018200080936C0308958C3F19F40E94A20BF8CFAB
:101830009FE0980F983070F4815F990B21E030E0C1
:1018400001C0220F8A95EAF780916803822B80936A
:10185000680308958D3F31F4809162038160809325
:10186000620308958E3F21F4809162038260F7CF76
:101870008F3FB9F7809162038460F1CF80E00895D3
:10188000F894E82FE295EF70F0E031A1282F2F7047
:1018900081E090E001C0880F2A95EAF7982F909593
:1018A000932391A392A1892B82A378940895909178
:1018B000480392FF06C0282F28712830F9F4877F4B
:1018C000846093FF06C0282F28712831F1F4877EA9
:1018D00084612091490320FF06C0382F38713830C9
:1018E000D9F4877F816021FF06C0282F2871283115
:1018F000D1F4877E816194FD877E0895282F24711D
:101900002430F9F68B7F8860DCCF282F24712431B6
:1019100001F78B7E8861DDCF382F3171313019F7B7
:101920008E7F8860E0CF282F2171213121F78E7EB4
:101930008861E1CF972F7530A8F46F3098F470E08C
:101940002FE0929F600D711D1124FB019BE4899F84
:10195000E00DF11D1124EE0FFF1FE455FF4F85919F
:101960009491089580E090E00895CF93DF93EC0187
:1019700082389105A9F1D8F58133910509F496C013
:1019800048F58932910509F48AC08A9709F495C00F
:10199000C11521E5D20708F0BCC0C11530E5D30759
:1019A00008F014C1C83ED10508F09CC0C03ED10566
:1019B00060F5C83AD10508F087C0C53AD10508F0EE
:1019C000FDC0C130D10509F12097F9F0C430D1052F
:1019D000E0F440C08533910509F45AC0C997C1F6B7
:1019E00080914803837089F0C0EED0E00EC0833E42
:1019F000910599F170F4803E910501F1823E9105C7
:101A000039F68091480382FD21C0CE01DF91CF914C
:101A10000895863E910561F1873E910571F1843EFE
:101A2000910509F0B5CF8091490381FFEECF8091F8
:101A30004803C7EED0E084FD0DC0E7CF8091480396
:101A400080FD12C19091490390FFDFCFC3EED0E03B
:101A500084FFDBCFD0E0C0E0D8CF8091480382FD87
:101A600006C19091490390FDBFCF84FFCECFF2CF46
:101A70008091480383FDDDCFC8CF8091480383FD6B
:101A8000F9C09091490391FFF0CFC4EED0E0BDCFF3
:101A90008091480385FFB9CFC9E2D0E0B6CF8091ED
:101AA000480385FFB2CFC5E3D0E0AFCF80914803B4
:101AB00086FFABCFCAE2D0E0A8CF8091480386FF73
:101AC000A4CFC1E3D0E0A1CFCF3BD10518F6C85ACF
:101AD000D0E0CC0FDD1FC35EDE4F0990D881C02D52
:101AE000D46493CFC11540E2D40758F4C11581E006
:101AF000D80708F08ACFCD3ED10508F4ABCFD0652A
:101B000084CFC11590E4D90708F4A4CFDF70D06A60
:101B10007CCFC11525E5D20700F5C11534E5D30703
:101B200008F08AC0C11543E5D40708F071C0C1159B
:101B300082E5D80708F467C0CE018370992721E0B9
:101B400030E002C0220F331F8A95E2F7C695C69592
:101B500080E2C89FE001112452C0C11599E5D90760
:101B6000A8F4C11528E5D20708F06BC0C11536E509
:101B7000D30708F06FCF8C2F0E94570CC82FD0E0EE
:101B8000DC2FCC27CC27DF71D0623FCFC1154AE5CF
:101B9000D40708F45BC0CE0190568115904208F03E
:101BA00059CF8D2F8F710E94570C90E0982F882766
:101BB00088279F719C012C2BE901E6CFC55AD0E004
:101BC000C65EDE4FC881D0E0D0641FCFCE01E4E016
:101BD00096958795EA95E1F783702C2F26952695A3
:101BE000237040E2249F90011124382B8C2F8370A6
:101BF000C1E0D0E002C0CC0FDD1F8A95E2F7C22B16
:101C0000D32BDC6802CFDC2FCC27C16FD06AFDCE8E
:101C1000CE018370992721E030E002C0220F331FEC
:101C20008A95E2F7C695C69590E2C99FE001112416
:101C3000C22BD32BDA68E9CEDC2FCC27C46FD06A55
:101C4000E4CEDC2FCC27C06FD06ADFCE8C2F8F7014
:101C50000E94570C34E0D695C7953A95E1F7CF70BE
:101C60009C2FEC01D069D1CEC9E3D0E0CECEC2EE3C
:101C7000D0E0CBCEC6EED0E0C8CE80913203811149
:101C80001092320308958095909131039823909398
:101C900031030895E6EBF2E09191891303C0DF016F
:101CA00011971C9292E0EC3BF907B1F70895A6EB6F
:101CB000B2E0EFEF90E02D91821751F0EF3F19F471
:101CC000211101C0E92F9F5F9630A9F7EF3F09F47A
:101CD00008950E2E000CFF0BEC54FD4F82830895E7
:101CE000809126039091F502981301C008958F5FAB
:101CF0008770FACFB0E0A0E0E0E8FEE00C940C289A
:101D00008C01C0904403D0904503E0904603F090CE
:101D100047038091330390913403A0913503B09130
:101D20003603C82AD92AEA2AFB2ACFE1D0E0BC2E02
:101D3000D701C6010C2E04C0B695A7959795879537
:101D40000A94D2F780FD09C0219788F7B12C8B2D1A
:101D5000CDB7DEB7E9E00C942828B8018C2F0E949B
:101D60009A0C0E94B50C019779F3F1CFCF93DF93D2
:101D7000EC010E947A0EBE010E949A0C0E94B50CE2
:101D8000DF91CF910895292F953080F58F3070F530
:101D900090E03FE0239F800D911D1124682F677014
:101DA00023E0969587952A95E1F725E0289FF00195
:101DB000299FF00D1124E354FD4F50E040E080E0F6
:101DC000219130E0062E02C0369527950A94E2F75D
:101DD00021703327042E01C0220F0A94EAF7822BC8
:101DE0004F5F5F4F4530510559F7089580E00895E2
:101DF000292F9530A0F58F3090F590E03FE0239F9C
:101E0000800D911D1124282F277041E001C0440F3F
:101E10002A95EAF723E0969587952A95E1F725E03C
:101E2000289FF001299FF00D1124E354FD4F30E06D
:101E300020E070E05191DF011197CB01022E02C02A
:101E4000969587950A94E2F781708195852784237A
:101E500085278C932F5F3F4F2530310559F7089523
:101E6000FC01808191810E94B60E92959F70963000
:101E700091F058F4925F9F70923058F4803F19F0BF
:101E800030F4883E30F481E008959A5FF4CF843FC7
:101E9000D1F380E00895883EB0F3813FD1F7F3CFCE
:101EA0008093F4047093F6046093F5048091040524
:101EB000843001F582E08093E9008FEF9091E80093
:101EC000815095FD06C095ED9A95F1F700008111BE
:101ED000F5CF8091E80085FF0DC050E040E063E061
:101EE00070E084EF94E00E9494038091E8008E7784
:101EF0008093E8000895BC0184E00E94500F08958B
:101F0000BC0183E00E94500F08959C0182E0809301
:101F1000E9009FEF8091E800915085FD06C085EDB6
:101F20008A95F1F700009111F5CF8091E80085FFC7
:101F30000CC050E040E066E070E0C9010E949403EC
:101F40008091E8008E778093E8000895CF93DF9327
:101F5000EC0181E08093E9008FEF9091E8008150DF
:101F600095FD06C095ED9A95F1F700008111F5CF2A
:101F70008091E80085FF14C050E040E068E070E028
:101F8000CE010E9494038091E8008E778093E80050
:101F900088E0FE01AAEFB4E001900D928A95E1F786
:101FA000DF91CF91089581E08093E00080E28093FB
:101FB000D8001092C9008FE19EE40197F1F700C0AC
:101FC000000087E090EBDC01809345059093460587
:101FD000A0934705B093480588E19CE00FB6F894BC
:101FE000A895809360000FBE90936000FFCF809A09
:101FF00031B33E7F21B321604FB7F8948AEE93E06E
:10200000FC015191CF0168E021BB000000C057FFE7
:1020100031BB550F000000C000C000C031BB00C084
:102020006A9591F7F4E0893E9F0751F74FBF8FE51E
:1020300094E00197F1F700C000000895EFE3F5E0A8
:1020400085E380838091170190911801A091190177
:1020500081839283A3838FE784838FEF858346E018
:1020600050E06CE170E0CF010E94CA2810923E055A
:102070000895B0E0A0E0EFE3F0E10C940428809133
:10208000960390919703A0919803B09199032FB76D
:10209000F8948090F0049090F104A090F204B09035
:1020A000F3042FBF75016401C81AD90AEA0AFB0AB2
:1020B0002FB7F8944091F0045091F1046091F2042C
:1020C0007091F3042FBF409396035093970360934E
:1020D00098037093990310916D03EDE6F3E0C12F1F
:1020E000D0E00197AF4FBF4F88199909AA09BB09E2
:1020F0001D131CC0C0936D0380913F05282F2370D2
:10210000722E19F0782E7694769490911601913073
:10211000B9F19923F1F0923009F49FC3933009F497
:10212000A4C3CDB7DEB7E1E10C942028218D328D18
:102130004901B12CA12C88159905AA05BB0520F4ED
:10214000C150DF5F3296D4CF2C0D3D1D328F218FD1
:10215000F8CF1092130140930E0550930F05609332
:1021600010057093110589E2EDE6F3E0A2E1B5E018
:1021700001900D928A95E1F781E080931601D1CF0D
:1021800090911101791223C083702091100130E0E9
:1021900091E08217130609F490E0892F81708093F3
:1021A00015018091440590911401981739F080939E
:1021B000140140E060E080E00E94040730E237153F
:1021C00060F0E72DF0E0ED59F64D0C94FD2781E02D
:1021D000E5CF80911501811102C080E023C040E06D
:1021E00060E080E00E940407F8CFC091130181E114
:1021F000C89FC02D112411E11C0F012F163508F0C6
:1022000005E56091400570914105809142050E946D
:102210002408F62EE72ED82ED0E0C017A8F081E0D3
:102220001535D8F6909113019F5F9093130181119A
:1022300078CF82E08093160180911501811171CFD2
:1022400071106FCF83E099CFFE01E45AFD4F80817A
:1022500090911401892331F02D2D4F2D6E2DCE013B
:102260000E9407072196D9CFC091130181E1C89F31
:10227000C02D112411E11C0F012F163508F005E5C2
:10228000E0904105F0904205D09140056D2F7E2DE4
:102290008F2D0E942408D62EC72EB82E609143059C
:1022A0006D0F7E2D8F2D0E942408F62EE72EA82E6E
:1022B000D0E0C01708F0B3CFFE01E45AFD4F908183
:1022C00080911401892359F02A2D4F2D6E2D90FDF8
:1022D00003C02B2D4D2D6C2DCE010E94070721969A
:1022E000E8CFC091130181E1C89FC02D112411E1F5
:1022F0001C0FF12E163510F0B5E5FB2EE0904105D0
:10230000D09042052091430500E4029F012D112445
:10231000D0E0CF1508F083CFFE01E45AFD4F808155
:10232000909114018923B9F0FE01EE0FFF1FED54C7
:10233000FE4F808182958F7060914005809F600D77
:1023400011247E2D8D2D0E942408462F282F672FC3
:10235000CE010E9407072196DCCFC091130181E1D5
:10236000C89FC02D112411E11C0FF12E163510F05D
:10237000F5E5FF2EE0904105D09042052091430500
:1023800000E4029F012D1124D0E0CF1508F047CFC3
:10239000FE01E45AFD4F8081909114018923D9F008
:1023A000FE01EE0FFF1FEE54FE4F6081069FB0014D
:1023B0001124E5E075956795EA95E1F78091400570
:1023C000680F7E2D8D2D0E942408462F282F672F01
:1023D000CE010E9407072196D8CFC091130181E159
:1023E000C89FC02D1124D1E1DC0F1D2FD63508F078
:1023F00015E5F090400500914105E090420560919F
:10240000430566956695669580910E0590910F053A
:102410000E941A08E82F86FDE0952E2F2F7086FD6A
:102420002F5FE695E695E695E670F0E0E15AFE4FFF
:102430009181929F902D212D112492959F7022952C
:10244000207F922B2081920F87FD9195892F87FD08
:102450008195880F282F3E2D239F212D1124822F17
:102460006F2D702F0E942408062FD72EC82EEC2E19
:10247000F12CE11628F081E0D53508F4D3CEADCEAD
:10248000F701E45AFD4F808190911401892331F0C6
:102490002C2D402F6D2DC7010E9407074FEFE41A26
:1024A000F40AE7CF8BED96E00E94B80ABBCE81EB31
:1024B00096E0FACF84EA97E00E94F509B3CE85E86A
:1024C00097E0FACF8AE697E00E944B0AABCE8EE403
:1024D00097E0FACF8FEA96E0E7CF86EA96E0E4CF7E
:1024E0008DE996E0E1CF84E896E0DECF86E796E0DE
:1024F000EBCF82EF97E0E0CF8DE397E0DDCFC091A7
:10250000130181E1C89FC02D112441E1542E5C0EBE
:10251000152D8BE4851508F41BE4809115018823A3
:1025200061F040E060E080E00E940407EFE9F3E042
:102530008BE4DF011D928A95E9F7809113018111E7
:1025400015C080919B0390919C030E94CC0421E0D4
:102550008931910508F420E020939A03499730F0DF
:102560000E94DB0490939C0380939B03D0E0E12EB8
:10257000F12C95E0892E912C2FE0422E3AEA332E51
:10258000CE15DF0534F081E0BAE4B51508F04ACE87
:1025900024CECE01B4010E94E9276B015C014A9C64
:1025A000C0014B9C900D1124FC01E156FC4FE60F3D
:1025B000F71F608089599E4FFC01E60FF71F0081CD
:1025C0000F3F51F110E0F801E45AFD4F80819091E6
:1025D0001401892309F1362D25E5321B08F430E07A
:1025E00070914105232D462D240F08F42FEF4091C3
:1025F0004205822F880F820F8E5F282F249F212D66
:102600001124822F632D631B0E942408462F282F3C
:10261000672FC8010E94070780919A03882389F0D9
:10262000362D41E0341B08F430E0632E4A9CC00193
:102630004B9C900D112481569C4FC80ED91ED6017B
:102640003C9321969DCF90904205E3E09E9EE00151
:102650001124D695C795D695C7955C2EC92CD12C3B
:102660008FEF90E0B6010E94E927862E8091150138
:10267000882371F040E060E080E00E940407EFE909
:10268000F3E08BE4DF011D928A95E9F710929E0337
:1026900080919D038F5F80939D0310E000E0CC1A32
:1026A000DD0A7801612CC80181569C4F5C01809144
:1026B0009E03862909F040C00E94862885359540F2
:1026C000DCF5F5019082F701E959FE4FE081EF3F1B
:1026D000C9F0D701A156BC4F2C91F0E05216E0F59D
:1026E00030E02C1B3D0B2C9FC0012D9F900D3C9F7B
:1026F000900D1124B6010E94D527262F492DCF0118
:102700000E9407076394FFE0EF0EF11C25E06212C0
:10271000CECF0F5F1F4F0F30110519F680919D032B
:10272000881202C010929D0380919E038F5F8D31AD
:10273000E8F480939E0351CDF701E156FC4F808170
:10274000882309F2891508F0BECF90919D03891264
:10275000BACF81508083B7CF929EC0011124BE01B1
:102760000E94D527462F20E060E0C9CF10929E033B
:102770002CEC33E084E04EEA53E09FEF990DAFE993
:10278000B3E0F901843041F4DC966C91DC97961249
:1027900003C0DC969C93DC976081691510F09083F0
:1027A0009786119631964A175B0761F781502F5033
:1027B00031098111E4CF11CD8FE696E00E948209A4
:1027C00031CD89E696E0FACF8091120521E0382FCD
:1027D000321B08F430E0832F60E576E00E94B808F1
:1027E00021CD60E576E080E0F9CF8091120521E00F
:1027F000482F421B08F440E0842F65E176E0EECFDD
:1028000065E176E0F0CF8091120521E0382F321B90
:1028100008F430E0832F63EE75E0E0CF63EE75E0FF
:10282000E2CF8091120521E0482F421B08F440E0DE
:10283000842F6BEC75E0D2CF6BEC75E0D4CF809138
:10284000120521E0382F321B08F430E0832F65EBAE
:1028500075E0C4CF65EB75E0C6CF7092110183704F
:10286000809310010E94F70FEDCC80913E058823E4
:1028700051F046E050E06CE170E08FE395E00E949B
:10288000CA2810923E0540910E0550910F056091A7
:102890001005709111052FB7F8948091F004909174
:1028A000F104A091F204B091F3042FBF841B950BA7
:1028B000A60BB70B4097A105B10508F432CC1092D6
:1028C00016012FCCAAE0B0E0E8E6F4E10C94092868
:1028D0008E010F5F1F4F8AE0F80111928A95E9F788
:1028E0009BE4E92E91E0F92E6801AA24A394B12C6F
:1028F000F70181917F018F3F09F446C0F894E82FDA
:10290000E295EF70F0E021A18F70A50102C0440FA5
:10291000551F8A95E2F7CA01922F982B91A392A195
:102920008095892382A3789400C0E0E5F1E021E05E
:1029300030E0912C812C41914F3F09F481C0A42FAC
:10294000A295AF70B0E090968C9190E04F7002C06D
:10295000959587954A95E2F780FD72C0C901882A4E
:10296000992A220F331F51E0EF35F50721F7F701C0
:10297000319780818F3F11F00E94400C80EA8A9548
:10298000F1F7F60191828082F2E0CF0ED11C40E592
:10299000E41641E0F40609F0ABCF4AE050E0B8019C
:1029A0008AE393E00E949628FF24F394009709F4A9
:1029B000F12C892B09F447C08AE0F801AAE3B3E0BF
:1029C00001900D928A95E1F781E0809339030E948E
:1029D000DB04909338038093370380913703909101
:1029E00038030E94CC04059790F180913A039091AE
:1029F0003B0390934B0380934A0380913C03909157
:102A00003D0390934D0380934C0380913E0390913E
:102A10003F0390934F0380934E0380914003909126
:102A2000410390935103809350038091420390910E
:102A3000430390935303809352031092390307C0CA
:102A400090E080E08CCF809139038111C6CF8F2D2B
:102A50002A96ECE00C942528809131039091300364
:102A6000892B8093B40290913203992391F0892BA2
:102A70008093B40220E086EB92E0FC013191CF011B
:102A800031112F5FF2E08C3B9F07B9F721110E94B3
:102A90003D0E48E050E068E273E084EB92E00E9473
:102AA0009628892BA9F088E0E4EBF2E0A8E2B3E0F5
:102AB00001900D928A95E1F7E091EB04F091EC041E
:102AC000309731F00280F381E02D84EB92E009959C
:102AD000089590E080E00E94FD0490E080E00E9474
:102AE000E704109230030E942C1586E0E7E6F3E03D
:102AF000DF011D928A95E9F710926103109260033D
:102B0000109262030E94020B089560934403709335
:102B1000450380934603909347030E9469150895E7
:102B20000F931F9341E050E060E070E004C0440F59
:102B3000551F661F771F8A95D2F7CB01BA016095A2
:102B400070958095909500914403109145032091D4
:102B500046033091470360237123822393230E940D
:102B600085151F910F9108959091270380958923D2
:102B700080932703282F277091F4282F082E000C0C
:102B8000330B9217130659F09091490392FF07C037
:102B90008595859585950E94901510922703089537
:102BA0000F931F9341E050E060E070E004C0440FD9
:102BB000551F661F771F8A95D2F780914403909125
:102BC0004503A0914603B09147038A019B01082B5E
:102BD000192B2A2B3B2BC901B8010E9485151F9187
:102BE0000F910895609333037093340380933503FA
:102BF000909336030E946915089510923103E6EB15
:102C0000F2E086E0DF011D928A95E9F70E946915DE
:102C10000895AAE2B0E0EFE0F6E10C94122886E015
:102C200095E02091F100FC012193CF01F5E08E3079
:102C30009F07B9F780910705833009F470C0B8F495
:102C4000813009F447C0823009F4B1C08091E800B6
:102C500083FF7EC280910605909107059A3008F0A7
:102C600077C2E92FF0E0EC57F64D0C94FD278A303F
:102C700009F48CC08B3009F46FC0893039F780912A
:102C80000605813219F780910A0590910B0502978C
:102C9000E8F68091E800877F8093E8008091E80063
:102CA00082FF38C09091F3008091F200029731F4D6
:102CB0008091F100813011F0863021F48091F10093
:102CC0008093F9048091E8008B778093E8000E945C
:102CD000BE03BCCF80910605813A09F0B7CF809141
:102CE000E800877F8093E80080910A0590910B05AA
:102CF000892B61F468E08AEF94E070E00E946A0436
:102D00008091E8008B778093E800A0CF60E090E0AE
:102D100080E0F3CF809104058111C0CF97CF8091DF
:102D20000605813A09F092CF80910A0590910B0532
:102D3000892B09F08BCF8091E800877F8093E80092
:102D40008091E80080FFFCCF809112018093F10018
:102D50008091E8008E77B9CF80910605813209F025
:102D600075CF80910A0590910B05892B09F06ECFE4
:102D70008091E800877F8093E8000E94BE038091E5
:102D80000805809312010E94FD1560CF8091060511
:102D9000813209F05BCF8091E800877F8093E80063
:102DA0000E94BE03809109058093F8044FCF809163
:102DB0000605813A09F04ACF8091E800877F809329
:102DC000E8008091E80080FFFCCF8091F804BECF3E
:102DD000803899F0823809F0BBC180910A058F7064
:102DE000873008F0B5C18093E9008091EB0085FB46
:102DF000882780F91092E90006C080910205909121
:102E00000305911182609091E800977F9093E8000C
:102E10008093F1001092F1008091E8008E7794C1C8
:102E2000882309F482C1823009F092C1809108059B
:102E3000811185C180910A058F702FEF280F2630F0
:102E400008F086C18093E9002091EB0020FF77C154
:102E5000933031F48091EB0080628093EB006FC17E
:102E60009091EB0090619093EB0021E030E001C085
:102E7000220F8A95EAF72093EA001092EA008091E7
:102E8000EB008860EACF811163C1109108051F77BC
:102E90008091E3008078812B8093E3008091E800AB
:102EA000877F8093E8000E94BE038091E80080FF46
:102EB000FCCF8091E30080688093E30082E01111F1
:102EC00083E08093040544C18058823008F040C1FB
:102ED00080910805909109058C3D23E09207A1F5AA
:102EE00083E08A838AE289834FB7F894DE011396E0
:102EF00020E03EE051E2E32FF0E050935700E491F0
:102F000020FF03C0E295EF703F5FEF708E2F90E0DF
:102F1000EA30C0F0C7968D939D932F5F243159F707
:102F20004FBF8091E800877F8093E8006AE270E0FD
:102F3000CE0101960E946A048091E8008B7780930D
:102F4000E80006C1C096E7CF40910A0550910B05F5
:102F5000292F33272330310509F444C078F5213077
:102F6000310509F46FC08BE390E0E5E5F5E0223030
:102F7000310509F0EDC02091E800277F2093E8009B
:102F800020910C0530910D058217930708F49C01E0
:102F900040E02115310509F064C0411162C0809103
:102FA000E80082FDC9CF80910405882329F285308D
:102FB00019F28091E80083FFF2CFBECF21323105B4
:102FC000A9F12232310509F0C3C04115510509F4B8
:102FD00043C04130510509F0BBC08BE790E0EAE9FE
:102FE000F4E0C9CF992781309105C1F0009759F0DD
:102FF000029709F0ADC0E2EAF5E0E4918E2F90E08F
:10300000E2EAF5E007C0EEEBF5E0E4918E2F90E008
:10301000EEEBF5E0009709F49BC0ADCFEEEAF5E0EA
:10302000E4918E2F90E0EEEAF5E0F4CF41155105E2
:1030300071F04130510509F08BC089E090E0E0E883
:10304000F5E099CF82E190E0E0E9F5E094CF89E006
:1030500090E0E7E6F5E08FCF80E490E0E5E1F5E091
:103060008ACF80910405882309F466CF853009F45E
:1030700063CF8091E80083FD5FCF8091E80082FDFF
:103080008ECF8091E80080FF84CF9091F3008091F3
:10309000F2002115310519F08830910550F041E01A
:1030A000089709F040E08091E8008E778093E8006F
:1030B00070CF44914093F10031962150310901962F
:1030C000E8CF803809F044C08091E800877F809382
:1030D000E800809105058093F1009ECE811138C0F3
:1030E000109108051230A0F58091E800877F809349
:1030F000E800109305050E94BE03112311F084E03F
:1031000005C08091E30087FDFACF81E0809304053C
:1031100042E061EC81E00E94DD0342E261EC82E08A
:103120000E94DD038091040513C080910805813061
:1031300079F481E0933009F080E0809303051092E8
:10314000E9008091E800877F8093E8000E94BE0339
:103150008091E80083FF0AC08091E800877F809318
:10316000E8008091EB0080628093EB00AA96E3E098
:103170000C942E280E94FD152FEF84E39CE0215033
:1031800080409040E1F700C0000088E19CE00FB66D
:10319000F894A895809360000FBE90936000FFCFD5
:1031A000882321F00E94430E0E942C150895882345
:1031B00039F090913103982B909331030E942C1594
:1031C0000895882309F455C0823879F40E941305C4
:1031D00081FF4FC089E30E94570E0E942C1589E39E
:1031E0000E944A0E0E942C150895833859F40E94BB
:1031F000130580FF3EC083E50E94570E0E942C15E8
:1032000083E5EECF843859F40E94130582FF31C064
:1032100087E40E94570E0E942C1587E4E1CF9CEFB3
:10322000980F913AE8F290E2980F983050F4877036
:1032300091E001C0990F8A95EAF7892F0E94430E09
:10324000D1CF9BE5980F933028F490E080E00E9466
:10325000FD04089598E5980F973128F490E080E0F8
:103260000E94E70408958D3E20F00E94290B0E94E1
:10327000020B0895CF93C82F8823C9F08238C9F470
:103280000E94130581FD13C089E30E94570E0E941E
:103290002C152FEF81EE94E0215080409040E1F713
:1032A00000C0000089E30E944A0E0E942C15CF91B5
:1032B00008958338A1F40E94130580FDF8CF83E5BB
:1032C0000E94570E0E942C152FEF81EE94E02150A2
:1032D00080409040E1F700C0000083E5E4CF8438EF
:1032E000A1F40E94130582FDE2CF87E40E94570EED
:1032F0000E942C152FEF81EE94E0215080409040E9
:10330000E1F700C0000087E4CECF8CEF8C0F813A4C
:1033100068F4E6EBF2E08191C817E1F122E0EC3BC2
:10332000F207C9F78C2F0E94570EBFCF80E28C0F97
:10333000883068F4C77021E030E001C0220FCA95E0
:10334000EAF780913103822B80933103AECFEBE516
:10335000EC0FE33040F4F0E0E65EFE4F808190E059
:103360000E94FD04A4CFE8E5EC0FE73150F4F0E053
:10337000EE0FFF1FE35EFE4F808191810E94E70404
:1033800096CFCD3E08F493CF8C2F0E94E40B0E9481
:10339000020B8DCF8C2F0E944A0E0E942C15C2CF9B
:1033A0000F931F93CF93DF93C62FD42F022FFC01CF
:1033B00082818823A9F060933D050E94DB049093ED
:1033C0003C0580933B05C77081E001C0880FCA951A
:1033D000EAF70E94D718DF91CF911F910F910895BE
:1033E00080913D05681335C080913B0590913C0567
:1033F0000E94CC04883C910560F510E21D0FCD17AA
:10340000B9F080E28C0F883040F4C77081E001C0D1
:10341000880FCA95EAF70E94D018183048F481E066
:103420009D2F977001C0880F9A95EAF70E94D718D0
:10343000802F0E943A19802F0E94E118183058F608
:10344000D77081E001C0880FDA95EAF70E94D018A2
:10345000C2CFC77081E001C0880FCA95EAF7F6CFE6
:10346000CF9384E090E00E94BC28C82F82E290E0D5
:103470000E94BC28982F8C2FCF91089568EE7EEF84
:1034800090E080E00E94F82860E082E090E00E94F6
:10349000DA2860E083E090E00E94DA28109233039B
:1034A00010923403109235031092360360E084E0EA
:1034B00090E00E94DA2864E082E290E00E94DA283C
:1034C00060E085E090E00E94DA2860E086E090E02D
:1034D0000E94DA286FEF87E090E00E94DA2840E04F
:1034E00050E0BA0188E090E00E94EC2860E08DE0B6
:1034F00090E00E94DA2840E050E0BA0188E190E0D4
:103500000E94EC2860E087E190E00E94DA2840E029
:1035100050E0BA018CE190E00E94EC2870E060E09D
:1035200080E290E00E94F82840E050E0BA0188E193
:1035300090E00E94EC2840E050E0BA018FE090E07B
:103540000E94EC2840E050E0BA0183E190E00E9444
:10355000EC280895CF93C0914903C2FB992790F9B5
:10356000981791F080FBC2F9C0934903609148031A
:1035700084E090E00E94DA286C2F82E290E00E94C2
:10358000DA2882E00E94B415CF910895A5E0B0E05A
:10359000ECECFAE10C9405287C01FC018381948118
:1035A000892B31F08081918189238F3F09F0C7C435
:1035B0002596E0E10C9421280E947A0E182F682F9E
:1035C00089819A810E94F80E69817A81812F0E94F7
:1035D0009A0C8C01843FFCE59F0709F483C018F521
:1035E000893D9C4509F47AC00A3D8CE5180709F429
:1035F00089C0083D9CE5190709F526E241EE61EE18
:10360000C7010E94D01980912703877089F2F701C2
:103610008281882369F28091490382FFC9CF82E0C9
:103620000E94B415C5CF863FECE59E0709F462C041
:1036300008F45CC0873F9C4509F460C0F7018281B3
:10364000882309F48DC410923D050430FDE51F0761
:1036500008F05BC00B3F2CE5120730F4C801825024
:103660009C45449708F05BC00E94301A9093490330
:103670008093480301319CE5190709F429C108F03A
:10368000A5C00930FCE51F0709F40CC108F070C0A3
:1036900005303CE5130709F4FDC008F055C00330C0
:1036A0009CE5190709F4ECC008F0F0C080914803CC
:1036B00081600230FCE51F0709F4E5C06091480312
:1036C0001091490384E090E00E94DA28612F82E2A1
:1036D00090E00E94DA280E94FD1595CF27E245EE82
:1036E00065EE8ECF26E241EE60EE8ACF27E245EE10
:1036F00064EE86CF26E241EE62EE82CF27E245EE0F
:1037000066EE7ECF28E241E0EBCF02363DE51307BF
:1037100009F4AACF063A8DE5180709F4A5CF0631BA
:103720002CE5120709F028C4809131038A7A91E0D0
:1037300009F490E09093BC028111F4C089E20E94E8
:10374000570E0E942C155FCF80914803806207308E
:103750002CE5120709F497C0809148038061083076
:103760003CE5130708F48FC08091480380648BC048
:103770000D308CE5180709F49FC0A0F48091480330
:103780008E7F0B30ECE51E0709F47DC08091480365
:103790008C600C30FCE51F0708F475C0809148036D
:1037A0008D7F71C0809148038F7E0F302CE512070A
:1037B00009F469C080914803877F00313CE5130715
:1037C00008F461C0809148038F7D5DC00E3F8CE599
:1037D000180709F479C058F50531ECE51E0709F41E
:1037E00081C098F480914803837F03312CE5120750
:1037F00009F449C008F470C00E94FD159091480377
:10380000892F97FB87F980583EC00C3F8CE518073D
:1038100009F444C008F054C08091490381600B3F13
:10382000ECE51E0709F04ACF8093490347CF0230E9
:10383000FDE51F0709F462C090F4809149038C7F75
:1038400001153DE5130781F398F180914903982F05
:10385000909591708E7F892B90FB81F9E5CF023690
:103860009DE5190709F450C0063AEDE51E0709F475
:1038700052C00330FDE51F0709F020CF60E03FC0D4
:103880008091480382608093480318CF8091480359
:103890008460F9CF809148038860F5CF8091490317
:1038A0008260C2CF0E94FD15809148038068EBCFF3
:1038B000809149038360B8CF809148038B7FE3CF29
:1038C000809149038E7FB0CF809149038D7FACCF2B
:1038D000809148038F7BD7CF0E94FD1580914803CC
:1038E0008F77D1CF8091480382FB992790F921E00F
:1038F000922790FB82F990FB83F9C5CF61E08EE0BF
:1039000090E00E94DA28DACE90914803892F8F7ECA
:1039100094FF8061B8CF90914803892F8E7F90FFEC
:103920008160B1CF85E30BCF85E323C340EA55E047
:103930006AEA75E00E94200566CE4AEA55E060EA30
:1039400075E0F8CF4CE855E066E975E0F3CF46E95D
:1039500055E06CE875E0EECF42E755E06FE775E0C3
:10396000E9CF4FE755E062E775E0E4CF45E655E083
:1039700068E575E0DFCF4CE355E06AE475E0DACF47
:103980004AE455E06CE375E0D5CF81E00E941B036B
:103990003ACE8DE0FBCF0E94FD153FEF84E39CE023
:1039A000315080409040E1F700C000000E94D30FEA
:1039B0008091490382FB882780F991E089270E9442
:1039C000AA1AF701828100811181882309F445C078
:1039D000C8010E947A0ED82E682FC8010E94F80EE6
:1039E000B8018D2D0E949A0C0E94B50C8C01882E76
:1039F000F701D280958092943FE093228091270333
:103A00008770C1F0BD2CDD20B1F0812F807F803424
:103A100021F080E2800F883068F08091490382FFB6
:103A200009C082E00E94B415809127038770BB24EF
:103A3000B3948111B12CA12EA2942FE0A222FBE01D
:103A4000FA1508F476C0EA2DF0E0E257F64D0C9432
:103A5000FD2781E0B4CF80E0B2CFC8010E94C30E41
:103A6000D82EBECF212F2F70C22E107F19F0C294F6
:103A700090EFC922DD20B9F0CC2069F080E2800F00
:103A8000883010F0811009C080913103C82AC0929B
:103A900031030E942C15802F4AC080913003C82A20
:103AA000C0923003F6CF802F0E94E118CC2009F499
:103AB00040C0005E083010F0811004C08C2D0E94C0
:103AC000430E06C0C09480913003C822C0923003D8
:103AD0000E942C152EC0312F3F70C32E107F103244
:103AE00019F0C29480EFC822882089F081E08816FE
:103AF00009F477C0DD2009F481C0992009F477C06A
:103B0000F701858180FFC7CF8F70858370C02091BA
:103B1000490322FD43C0DD20D9F1CC2039F080914A
:103B20003103C82AC09231030E942C1580E00E9404
:103B30003A19EA2DE850FF0B349710F40E94130550
:103B4000BB20A9F08091270380FD11C0F7011282EC
:103B50008595859585950E94D015C7010E94C61A46
:103B6000809127038595859585950E94901585E020
:103B7000F701DE01119601900D928A95E1F7098116
:103B80001A81C8010E94C30EB8010E949A0C10CD80
:103B900080E00E94E118CC2061F290CFDD20A1F0FE
:103BA000909132038C2D892B911003C00E94D7185D
:103BB000C0CFE1E09E12FACF22FFBBCF891709F4F4
:103BC000B8CF80933203B5CF911006C00E943D0E4E
:103BD0008C2D0E94D018ADCFF1E09F1609F4A9CF2B
:103BE000F5CFDD2031F025E0291508F4A2CF8C2D8A
:103BF000DDCF34E0391508F49CCFEACF992041F3AA
:103C0000F9E38F1295C12FEF37EE83E0215030405A
:103C10008040E1F700C000008BC1812F869586951A
:103C2000837061F0813009F084CFC8019370D110A6
:103C300002C090E080E00E94E7047BCFC80193704F
:103C4000D11002C090E080E00E94FD0472CF802F6E
:103C5000DD2029F00E94E40B0E94020B6ACF0E9433
:103C6000290BFACF812F837009F066C0D11061CF84
:103C7000802F829586958770880F880F602F6F70D0
:103C8000462E512C712C612C082E04C0440C551C5E
:103C9000661C771C0A94D2F740E050E0BA0104FF9A
:103CA0000FC04FE050E060E070E004C0440F551FCB
:103CB000661F771F8A95D2F740955095609570954D
:103CC000812F869586958370823019F1D8F4009102
:103CD0003303109134032091350330913603813042
:103CE00069F04429552966297729CB01BA01602357
:103CF0007123822393230E94F2151BCF402A512A5D
:103D0000622A732ACB01BA01642975298629972969
:103D1000F2CF442955296629772900913303109160
:103D200034032091350330913603CB01BA0160276B
:103D3000712782279327DFCF8695DD2011F0812F11
:103D40008170882309F4F5CE802F8295869587703F
:103D5000880F880F602F6F70462E512C712C612CAC
:103D6000082E04C0440C551C661C771C0A94D2F71C
:103D700040E050E0BA0104FF0FC04FE050E060E0C7
:103D800070E004C0440F551F661F771F8A95D2F755
:103D90004095509560957095812F86958695837096
:103DA000823019F1D8F40091440310914503209119
:103DB000460330914703813069F04429552966292B
:103DC0007729CB01BA0160237123822393230E94B8
:103DD0008515AFCE402A512A622A732ACB01BA0137
:103DE0006429752986299729F2CF442955296629FE
:103DF00077290091440310914503209146033091A7
:103E00004703CB01BA016027712782279327DFCFB1
:103E10001F70DD2029F0812F0E94D015802FC6CE83
:103E2000802F0E94D018812F0E94901582CE802F63
:103E300092EF891609F43FC0981570F0E0EF8E16E6
:103E4000D1F0F1EF8F1691F0DD2009F46CC09110E4
:103E500022CE812F8F7133C023EF821699F134EF78
:103E60008312F2CF8091490382FD3FC0812F8F7171
:103E7000DD20D1F224C0DD20C9F084E0891508F4EA
:103E800058CE1F7161E070E080E090E004C0660FE2
:103E9000771F881F991F1A95D2F70091440310913C
:103EA00045032091460330914703ADCF95E0991526
:103EB00008F43FCEE6CF812F8F71D110B5CF0E948D
:103EC000D01537CE60E070E0CB01DD2009F47FCF64
:103ED0001F7161E070E080E090E004C0660F771F22
:103EE000881F991F1A95D2F772CFDD2089F01F71B4
:103EF000812F0E94D0158091490382FF07C0E8E01E
:103F00001E9FC0011124836080932703812FD7CF88
:103F100081E00E94B415F1E0F91508F00ACE82E0C4
:103F20000E94B41506CE992039F0893309F46BCE7E
:103F3000802F0E94E118FDCD812F8F7175CF85E014
:103F4000DE01119601900D928A95E1F7F701228129
:103F500089819A81211130CB0E94C30E182F34CB56
:103F60000631FCE51F0731F58091BC028111DCCCE4
:103F700089E20E944A0EE5CB0B352DE5120709F4C4
:103F800068CD68F401158CE5180709F404CD0F3DE0
:103F90001C4509F016CD0E943E1A0E94BA180D3534
:103FA000EDE51E0709F404CD08F455CD083A1D458A
:103FB000A1F307CD8091310382720B3C3CE51307DE
:103FC00009F4D4CCB0F5063CECE51E0709F4BACCF4
:103FD000D0F4043C2CE5120709F4A8CC08F0ADCCD1
:103FE000033C8CE5180709F0ECCC80913F0591E08B
:103FF000892780933F051092160180913E058160CC
:1040000080933E0500CB083C9CE5190709F4A4CC3D
:1040100008F49DCC093CFCE51F0709F4A2CC48E557
:1040200055E065E675E00A3C2CE5120709F482CC00
:10403000C8CC003D3CE5130709F4ABCC98F40D3C2B
:10404000ECE51E0709F49CCC08F495CC0E3C2CE55D
:10405000120709F49ACC85E00F3C3CE5130709F4FC
:1040600095CCAFCC073D8CE5180738F482E1023DD2
:104070009CE5190708F48ACCC6CA0E35EDE51E0783
:1040800009F4C1CA9ECC1F93CF93DF938091F402B1
:10409000807F09F049C08091F102882309F444C06F
:1040A00080912603D091F5026091EF027091F002A9
:1040B000A091F202B091F302C62FC72316E0D817E1
:1040C00099F190E0109711F0CF3F19F401968770A5
:1040D000F6CF189F9001199F300D1124F901EA5075
:1040E000FD4F41814713F2CF40814613EFCF42810C
:1040F0004111ECCF438154814A1B5B0B483C510575
:1041000028F78091F4028F7080618093F402F901A6
:10411000E550FD4F80818F70806180838FEE92E04B
:104120000E94C61A0E94700EDF91CF911F910895D0
:10413000A1E1B0E0EEE9F0E20C940B288C0185E0FF
:10414000F801DE011D9601900D928A95E1F7F801C4
:10415000E2808FEEA82E82E0B82E6091F20270917C
:10416000F3026115710509F426C19091EF024091A7
:10417000F002892F84238F3F09F41DC120813181F2
:10418000C380D480F090F102F601E61BF70BFF200C
:1041900009F4DCC08091F402582F507FE83CF1050F
:1041A00008F09FC051116BC0FE2C431314C0921332
:1041B00012C0E11010C08F7080618093F402C501BD
:1041C0000E94C61A8091F402F80185838F2D6196B2
:1041D000EAE00C942728C114D10429F0822F83230C
:1041E0008F3F09F003C180E0F82FF170DF2E80FFD0
:1041F0003CC0809126034091F50256E0841315C01F
:104200002D873E878D859E850E94B60E292F22958B
:104210002F702230F0F0243018F59F70F1F0F80183
:104220009581907FD1F4D12C1EC090E0589FF00171
:10423000599FF00D1124EA50FD4F6181361306C0DD
:104240006081261303C06281E6120FC00196877059
:10425000D5CF9F7011F0882331F3805E883018F33A
:10426000C8010E94C61AFD2CB1CFEE2009F4AECFD2
:104270008091F40281608093F402F12CA7CF431364
:1042800006C0921304C0F801EE2009F479C0C801F9
:104290000E94300F882309F1EE20F9F08091F4029A
:1042A000803270F02091EF023091F00238872F8336
:1042B0001986DB86CA868C87CE0107960E94C61AAD
:1042C00086E0F801AFEEB2E001900D928A95E1F739
:1042D0000E944320FF24F39479CFC8010E94C61A9C
:1042E000F9CF51110AC08FEE92E00E94C61A86E003
:1042F000F50111928A95E9F7C0CF43130FC09213CD
:104300000DC0E1100BC0F8018583C8010E94C61AD8
:1043100086E0F50111928A95E9F758CFC8010E940D
:10432000300F8823D1F2EE20C1F28091F402803266
:1043300038F22091EF023091F0023A8329831B82F8
:10434000DD82CC828E83CE010196B8CFE83CF105A8
:10435000F8F6FE2CEE2009F243131FC092131DC085
:104360008091F40280FD10C0982F907F69F0F801D1
:104370008583903F31F0982F907F905F8F70892BCD
:104380008583C8010E94C61A86E0F801AFEEB2E04C
:1043900001900D928A95E1F719CFC8010E94300F64
:1043A00081118ECF8091F40281608093F402C80164
:1043B0000E94C61A0BCFEE2009F48FCFC8010E94CD
:1043C000300FF82E882309F488CF86E0F801AFEE8D
:1043D000B2E001900D928A95E1F78091EF02909101
:1043E000F0020E94B60E0E944320F0CE81E08E259E
:1043F000FBCEA7E1B0E0EFEFF1E20C9412284B8B7B
:104400005C8B6D8B7E8B8F8B6111109230031A8ABF
:10441000198A85E0FE017396DE011D9601900D92CA
:104420008A95E1F786E0FE013D96DE011796019040
:104430000D928A95E1F7CE0107960E94982081118E
:1044400012C086E0FE013796DE01119601900D92B2
:104450008A95E1F78A859B85892B29F088859F813C
:1044600089238F3F81F516E0809126039091F50214
:10447000891317C06796E3E00C942E2896E0929F6C
:10448000D001939FB00D1124AA50BD4FFE0131966B
:1044900001900D929A95E1F78093F5020E94700EBB
:1044A000E2CF819FC00111248A509D4F0E94982025
:1044B000882301F38091260390E001968770992765
:1044C00080932603D1CF2091F50230E0C9010196F7
:1044D00087709927409126034817190679F60E949C
:1044E000FD151092F5021092260386E0EFEEF2E041
:1044F000DF011D928A95E9F7B6CF1F920F920FB692
:104500000F9211242F933F934F935F936F937F9359
:104510008F939F93AF93BF93CF93DF93EF93FF93CB
:10452000D091E900DF708091EC00C82FC17080FD50
:10453000C0E81092E9008091F000877F8093F0003E
:1045400078940E9409161092E9008091F00088602A
:104550008093F000CD2BCF70C093E900FF91EF91D5
:10456000DF91CF91BF91AF919F918F917F916F918B
:104570005F914F913F912F910F900FBE0F901F9021
:1045800018951F920F920FB60F9211242F933F93FD
:104590004F935F936F937F938F939F93AF93BF934B
:1045A000EF93FF938091E10082FF09C08091E200C8
:1045B00082FF05C08091E1008B7F8093E1008091B4
:1045C000DA0080FF24C08091D80080FF20C0809155
:1045D000DA008E7F8093DA008091D90080FF9DC041
:1045E00080E189BD82E189BD09B400FEFDCF81E093
:1045F000809304058091F704811109C00E9444034F
:104600000E940F048091E20084608093E200809118
:10461000E10080FF17C08091E20080FF13C080910D
:10462000E2008E7F8093E2008091E20080618093BF
:10463000E2008091D80080628093D80019BC85E0A8
:10464000809304058091E10084FF2BC08091E200FB
:1046500084FF27C080E189BD82E189BD89B5982F9B
:10466000917080FFFBCF8091D8008F7D8093D80020
:104670008091E1008F7E8093E1008091E2008F7E47
:104680008093E2008091E20081608093E20080915B
:104690000505882309F447C084E0809304058091D0
:1046A00004058091E10083FF27C08091E20083FF31
:1046B00023C08091E100877F8093E10082E08093B6
:1046C0000405109205058091E1008E7F8093E10042
:1046D0008091E2008E7F8093E2008091E200806111
:1046E0008093E20042E060E080E00E94DD03809180
:1046F000F00088608093F000FF91EF91BF91AF913F
:104700009F918F917F916F915F914F913F912F91E9
:104710000F900FBE0F901F90189519BC10920405B2
:104720001092F70474CF8091E30087FD93E090939B
:104730000405B5CF78941F921FB61F9211248F9352
:104740009F93AF93BF938091F0049091F104A09157
:10475000F204B091F3040196A11DB11D8093F00401
:104760009093F104A093F204B093F304BF91AF913E
:104770009F918F911F901FBE1F9018951F921FB67B
:104780001F9211248F939F93AF93BF938091EF0457
:10479000811113C08091F0049091F104A091F20472
:1047A000B091F3044196A11DB11D8093F004909344
:1047B000F104A093F204B093F304BF91AF919F91E1
:1047C0008F911F901FBE1F901895CDB7DEB76097D1
:1047D0000FB6F894DEBF0FBECDBF85B7806885BF2A
:1047E00085B7806885BF84B7877F84BF0FB6F8948C
:1047F000A8958091600088618093600010926000AD
:104800000FBE80E890E00FB6F8948093610090931B
:1048100061000FBE8EE39CE09093B3028093B202DE
:104820000E9444030E940F048091E2008460809300
:10483000E2007894809104058823A1F01091E900AA
:104840001F709091EC00892F817090FD80E8182BEB
:104850001092E9008091E80083FD0E9409161F7004
:104860001093E90082E084BD93E095BD9AEF97BD77
:1048700080936E000BE411E0D8018D918D018F3F84
:1048800011F00E94400CB1E000351B07A9F700E5CC
:1048900011E0F80181918F018F3F11F00E94400CCF
:1048A000F1E00F351F07A9F78AE0EAE4F3E0DF0142
:1048B000282F1D922A95E9F7EAE3F3E0DF011D9224
:1048C0008A95E9F790E080E00E94C428883E9E4FD8
:1048D00011F00E943E1A82E090E00E94BC28809372
:1048E00054030E94301A90934903809348030E9416
:1048F0006214EFE3FCE93197F1F700C000000E9479
:10490000621480914A0380FF08C06FEF7FEF90E050
:1049100080E00E94F8280E94D30F83E090E00E947C
:10492000BC28682F70E090E080E00E94F2151092A1
:1049300012058FEF9FEF90932C0580932B0590939A
:104940002E0580932D059093300580932F0590932D
:10495000320580933105909334058093330590930D
:1049600036058093350590933805809337059093ED
:104970003A058093390510926D03909387038093D5
:104980008603909389038093880390938B0380938D
:104990008A0390938D0380938C0390938F0380936D
:1049A0008E0390939103809390039093930380934D
:1049B0009203909395038093940390E080E00E948B
:1049C000C428883E9E4F21F00E943E1A0E941E106D
:1049D00046E050E06CE170E08FE395E00E94AC2887
:1049E00010923E0580913F058C7F11F40E941E10AD
:1049F00084E091E09093EC048093EB0428E1422E54
:104A0000512C34E5632E33E0732E98E0A92EB12C9F
:104A10008091040500E112E1853009F44FC10E9444
:104A20006214882359F08FB7F8944091F0045091A4
:104A3000F1046091F2047091F3048FBFEAE4F3E0B3
:104A4000A5E5B3E0F12CE12C0E2DC190D1902D9174
:104A50003D912C153D0509F457C210E0882483943C
:104A6000912C2C253D25A90148215921452B09F4DC
:104A700045C21F830887C820D92081E0C114D10412
:104A800009F480E089870E94DB048160782F9B878E
:104A90008A874F81588569858B850E94F921F701A6
:104AA000EE0FFF1FEB5AFC4F8081918188269926DB
:104AB00091828082CD2871F08FE08E9DF0018F9DD4
:104AC000F00D1124E959FE4FE10FF11D80818F3F58
:104AD00009F0FEC0212CC22CD12C80916D038C0DCD
:104AE0009D2D911D09975CF145018C189D08B6011B
:104AF00062597C4FA4018EE693E00E94A328B60180
:104B00006A587C4FA40186E793E00E94A328A40181
:104B1000440F551FB601660F771F6A577C4F86E812
:104B200093E00E94A328B60162587C4FA4018EE74F
:104B300093E00E94A32888E0821980936D038091FE
:104B40006D0390E0A32DB0E09D01220F331F2E5482
:104B50003E4FAA0FBB1FBD016D547E4F41E0480F71
:104B6000921508F4B9C080936D0380913F058C7F46
:104B70008C3409F0F4C08FEF800FDD24D394D00E75
:104B80009FEF910FA1E0A10F911780F43FE03E9DB0
:104B9000F0013F9DF00D1124E156FC4FE90FF11D8E
:104BA000308140E1340F08F43FEF3083612F70E033
:104BB0003FE03E9DA0013F9D500D112441565C4FAA
:104BC000FA01E60FF71F3081B0E2232F3B2F230FAE
:104BD00008F42FEF2083AF3009F4E3C1FA01EA0FA4
:104BE000F11D308140E1340F08F43FEF308345E0A0
:104BF000D41287C0911770F42FE0829FF001112426
:104C0000E156FC4FE90FF11D20813DE0230F08F430
:104C10002FEF20833FE0839FC001112481569C4FDA
:104C2000FC01E60FF71F208130E1230F08F42FEF7E
:104C30002083AF3009F493C0A80FB92FB11D2C9178
:104C40003DE0230F08F42FEF2C9389C080910405D9
:104C5000843021F10E9439101092EF0420E40FB645
:104C6000F894A895409260000FBE2093600083B72F
:104C7000817F846083BF83B7816083BF7894889588
:104C800083B78E7F83BF0FB6F894A895809160009C
:104C9000886180936000109260000FBE80910305D0
:104CA000882361F00E946214EAE4F3E0819191911B
:104CB000892B09F052C16E167F06C1F78091040559
:104CC000853009F4C3CF0E94FD150E941305A7CEBD
:104CD000382E22242394FFCE90E0FC01E359FC4FB0
:104CE000D9015C915183DB015C915187318A880F36
:104CF000991FFC01E359FC4F128E118E91E0842F15
:104D00002DCF911770F4BFE0DB9EF0011124E15626
:104D1000FC4FE90FF11D30814DE0340F08F43FEFF7
:104D20003083EFE0DE9E9001112421563C4FF901C3
:104D3000E60FF71F408150E1450F08F44FEF408325
:104D4000AF3009F42AC1F901EA0FF11D20813DE0DD
:104D5000230F08F42FEF2083801708F44BCF0E9415
:104D6000391086E0E7E6F3E0DE01119601900D923E
:104D70008A95E1F71092690310926A0310926B030F
:104D800010926C031B810C81812F802B09F448C089
:104D900080916503909166030E94CC049C019091E0
:104DA0006103992309F4F4C025313105C8F19F3F0F
:104DB00019F09F5F90936103112359F00E94C40B77
:104DC0009FEF11160CF491E0899F802D11248093A0
:104DD0006903002359F00E94C40B9FEF10160CF4D6
:104DE00091E0899F802D112480936A03309169039B
:104DF0003323B1F020916A03222391F045EB340371
:104E0000C0011124992309F498C09093690345EBDC
:104E1000240390011124332309F493C030936A03CF
:104E20001D810E81812F802B09F448C0809163037E
:104E3000909164030E94CC049C019091600399239B
:104E400009F4A1C021353105C8F19F3F19F09F5FDA
:104E500090936003112359F00E94A20B9FEF11164B
:104E60000CF491E0899F802D112480936B03002323
:104E700059F00E94A20B9FEF10160CF491E0899F4D
:104E8000802D112480936C0330916B033323B1F098
:104E900020916C03222391F045EB3403C0011124CF
:104EA000992309F452C090936B0345EB24039001BE
:104EB0001124332309F44DC030936C0346E050E0D5
:104EC000BE016F5F7F4F87E693E00E949628892B93
:104ED00011F00E94020B86E0FE013196A7E6B3E0D6
:104EE00001900D928A95E1F70E94130590915F035E
:104EF000891709F48DCD80935F0387CD1F5F880CE0
:104F0000991C1F3009F0AFCD4FEFE41AF40A85E089
:104F1000E816F10409F098CD8FEF8C878D871E86F7
:104F20000E94DB048160782F988B8F874C855D858C
:104F30006E8588890E94F92112CF81E080936903F0
:104F400066CF81E080936A036BCF81E080936B032F
:104F5000ACCF81E080936C03B1CF09BD19BD09B41A
:104F600000FEFDCF8091D8008F7D8093D800809186
:104F7000E00082608093E0008091E00081FDFCCF42
:104F80000E94FD159BCE2B30310508F060CF96CFE7
:104F90002B30310508F00DCF43CF801708F0DFCE5E
:104FA0002BCEB5E0DB12AFCE27CEAA1BBB1B51E147
:104FB00007C0AA1FBB1FA617B70710F0A61BB70B89
:104FC000881F991F5A95A9F780959095BC01CD012E
:104FD000089597FB072E16F4009407D077FD09D0AB
:104FE0000E94D52707FC05D03EF4909581959F4FF0
:104FF0000895709561957F4F0895EE0FFF1F0590FE
:10500000F491E02D09942F923F924F925F926F920C
:105010007F928F929F92AF92BF92CF92DF92EF9248
:10502000FF920F931F93CF93DF93CDB7DEB7CA1BC9
:10503000DB0B0FB6F894DEBF0FBECDBF09942A88F4
:10504000398848885F846E847D848C849B84AA849C
:10505000B984C884DF80EE80FD800C811B81AA8129
:10506000B981CE0FD11D0FB6F894DEBF0FBECDBFF4
:10507000ED0108958F929F92AF92BF92CF92DF92EF
:10508000EF92FF92CF93DF93EC01688179818A815F
:105090009B81611571058105910521F464E279ED2B
:1050A0008BE597E02DE133EF41E050E00E94FE28D0
:1050B00049015A019B01AC01A7EAB1E40E941D29F4
:1050C0006B017C01ACEEB4EFA50194010E942B2989
:1050D000DC01CB018C0D9D1DAE1DBF1DB7FF03C0B4
:1050E0000197A109B04888839983AA83BB839F77DE
:1050F000DF91CF91FF90EF90DF90CF90BF90AF9076
:105100009F908F9008950E943A28089580E091E042
:105110000E943A280895B0E0A0E0809300019093A7
:105120000101A0930201B09303010895FB01DC018A
:1051300004C08D910190801921F441505040C8F76E
:10514000881B990B0895FB01DC0102C001900D92B0
:1051500041505040D8F70895DC01CB01FC01F9998A
:10516000FECF06C0F2BDE1BDF89A319600B40D92B3
:1051700041505040B8F70895F999FECF92BD81BDD6
:10518000F89A992780B50895A8E1B0E042E050E090
:105190000C94AE28DC01A40FB51F4150504048F0DC
:1051A000CB01840F951F2E910E94DB284150504067
:1051B000D0F70895262FF999FECF92BD81BDF89AB8
:1051C000019700B4021639F01FBA20BD0FB6F8944B
:1051D000FA9AF99A0FBE08950396272F0E94DB28AA
:1051E0000E94DA28252F0E94DB28242F0C94DB282C
:1051F0000196272F0E94DB280C94DA28052E97FBB6
:105200001EF400940E94152957FD07D00E943029F2
:1052100007FC03D04EF40C94152950954095309519
:1052200021953F4F4F4F5F4F089590958095709512
:1052300061957F4F8F4F9F4F08950E945229A59FE0
:10524000900DB49F900DA49F800D911D1124089581
:10525000B7FF0C941D290E941D29821B930B0895F2
:10526000A1E21A2EAA1BBB1BFD010DC0AA1FBB1F6A
:10527000EE1FFF1FA217B307E407F50720F0A21BDC
:10528000B30BE40BF50B661F771F881F991F1A9449
:1052900069F760957095809590959B01AC01BD0173
:1052A000CF010895A29FB001B39FC001A39F700DCD
:1052B000811D1124911DB29F700D811D1124911D1E
:1052C0000895F894FFCFE910F51034117111AD1164
:1052D000ED11521257125A125F12621267126A12BD
:1052E0006D1270127312761279127C127F122313D0
:1052F000DC13E113E413F113F513001403140E147B
:1053000011141C141F142A14E8161017A8181017CB
:10531000A81843176417A81861186E18321D321D9B
:105320006B1D6B1D0D1E271E991D991D321E081F1A
:04533000171F171F0D
:1053340001000000C904A60F850F800F7B0FC8046D
:10534400FFFF0100FF000300FFFF818283E200E909
:1053540000EA00B500B600B700CD008301CC008A96
:10536400019201940121022302240225022602272C
:10537400022A02B300B4006F00700030336736664F
:10538400F6F5F4F1C695939291909496973435007E
:105394003131295A1B750A54535251504F4E4D4CBA
:1053A4004B4A494847464544434241403F3E3D3CC1
:1053B4003B3A393837363534333231302F2E2D2CB1
:1053C4002B2A292827262524232221201F1E1D1CA1
:1053D4001B1A191817161514131211100F0E0D0C91
:1053E4000B0A080C3C0C700CA40CD80CD83CA43C44
:1053F400703C3C3C083CE040D040C040B040A04041
:1054040090408040704060405040404030402040D8
:1054140010400040E030D030C030B030A030903088
:1054240080307030603050304030303020301030B8
:105434000030E020D020C020B020A0209020802088
:105444007020602050204020302020201020002098
:10545400E010D010C010B010A01090108010701088
:105464006010501040103010201010100010E00098
:10547400D000C000B000A000900080007000600068
:105484005000400030002000100000000202020220
:1054940002020202020204040404040404040404D4
:1054A40004040404040404040404040404040404B8
:1054B40004040404040404040404040404040404A8
:1054C4000404040404040404040404040404040498
:1054D4000404040404040404040404040404040488
:0254E4000400C2
:00000001FF
